{
    "contractName": "HelloWorld",
    "abi": [
        {
            "inputs": [],
            "stateMutability": "nonpayable",
            "type": "constructor"
        },
        {
            "inputs": [],
            "name": "SayHello",
            "outputs": [
                {
                    "internalType": "string",
                    "name": "",
                    "type": "string"
                }
            ],
            "stateMutability": "view",
            "type": "function"
        }
    ],
    "bytecode": "608060405234801561001057600080fd5b5060408051808201909152600c8082526b48656c6c6f20576f726c642160a01b60209092019182526100449160009161004a565b5061011e565b828054610056906100e3565b90600052602060002090601f01602090048101928261007857600085556100be565b82601f1061009157805160ff19168380011785556100be565b828001600101855582156100be579182015b828111156100be5782518255916020019190600101906100a3565b506100ca9291506100ce565b5090565b5b808211156100ca57600081556001016100cf565b600181811c908216806100f757607f821691505b6020821081141561011857634e487b7160e01b600052602260045260246000fd5b50919050565b6101a48061012d6000396000f3fe608060405234801561001057600080fd5b506004361061002b5760003560e01c80633acb315014610030575b600080fd5b61003861004e565b60405161004591906100e0565b60405180910390f35b60606000805461005d90610133565b80601f016020809104026020016040519081016040528092919081815260200182805461008990610133565b80156100d65780601f106100ab576101008083540402835291602001916100d6565b820191906000526020600020905b8154815290600101906020018083116100b957829003601f168201915b5050505050905090565b6000602080835283518082850152825b8181101561010c578581018301518582016040015282016100f0565b8181111561011d5783604083870101525b50601f01601f1916929092016040019392505050565b600181811c9082168061014757607f821691505b6020821081141561016857634e487b7160e01b600052602260045260246000fd5b5091905056fea2646970667358221220377500fe3f250c4302decc291a58a791316f7acce92609b2056b7d5c0870987c64736f6c63430008030033",
    "sourcePath": "/home/daniel/Schreibtisch/BachelorThesis/SmartContract/contracts/HelloWorld.sol",
    "compiler": {
        "name": "solc",
        "version": "0.8.3+commit.8d00100c"
    },
    "functionHashes": {
        "SayHello()": "3acb3150"
    },
    "gasEstimates": {
        "creation": {
            "codeDepositCost": "84000",
            "executionCost": "infinite",
            "totalCost": "infinite"
        },
        "external": {
            "SayHello()": "infinite"
        }
    }
}