{
  "contractName": "AdvertContract",
  "abi": [
    {
      "inputs": [],
      "stateMutability": "nonpayable",
      "type": "constructor"
    },
    {
      "inputs": [
        {
          "internalType": "uint256",
          "name": "",
          "type": "uint256"
        }
      ],
      "name": "ads",
      "outputs": [
        {
          "internalType": "uint256",
          "name": "counter",
          "type": "uint256"
        },
        {
          "internalType": "uint256",
          "name": "funds",
          "type": "uint256"
        }
      ],
      "stateMutability": "view",
      "type": "function",
      "constant": true
    },
    {
      "stateMutability": "payable",
      "type": "receive",
      "payable": true
    },
    {
      "inputs": [],
      "name": "receiveEther",
      "outputs": [],
      "stateMutability": "payable",
      "type": "function",
      "payable": true
    },
    {
      "inputs": [
        {
          "internalType": "uint256",
          "name": "_id",
          "type": "uint256"
        },
        {
          "internalType": "uint256",
          "name": "_wei",
          "type": "uint256"
        }
      ],
      "name": "augmentAds",
      "outputs": [],
      "stateMutability": "payable",
      "type": "function",
      "payable": true
    },
    {
      "inputs": [
        {
          "internalType": "uint256",
          "name": "_id",
          "type": "uint256"
        }
      ],
      "name": "getFunds",
      "outputs": [
        {
          "internalType": "uint256",
          "name": "",
          "type": "uint256"
        }
      ],
      "stateMutability": "view",
      "type": "function",
      "constant": true
    },
    {
      "inputs": [
        {
          "internalType": "uint256",
          "name": "_id",
          "type": "uint256"
        }
      ],
      "name": "getCounter",
      "outputs": [
        {
          "internalType": "uint256",
          "name": "",
          "type": "uint256"
        }
      ],
      "stateMutability": "view",
      "type": "function",
      "constant": true
    },
    {
      "inputs": [
        {
          "internalType": "uint256",
          "name": "_id",
          "type": "uint256"
        }
      ],
      "name": "showAd",
      "outputs": [],
      "stateMutability": "nonpayable",
      "type": "function"
    },
    {
      "inputs": [],
      "name": "getBalance",
      "outputs": [
        {
          "internalType": "uint256",
          "name": "",
          "type": "uint256"
        }
      ],
      "stateMutability": "view",
      "type": "function",
      "constant": true
    },
    {
      "inputs": [
        {
          "internalType": "address payable",
          "name": "_to",
          "type": "address"
        }
      ],
      "name": "withdrawEtherTo",
      "outputs": [],
      "stateMutability": "nonpayable",
      "type": "function"
    }
  ],
  "bytecode": "0x608060405234801561001057600080fd5b5033600160006101000a81548173ffffffffffffffffffffffffffffffffffffffff021916908373ffffffffffffffffffffffffffffffffffffffff160217905550610695806100616000396000f3fe60806040526004361061007f5760003560e01c8063214aed451161004e578063214aed45146101395780633e721015146101765780637df9364a146101b3578063a3912ec8146101dc57610086565b806307fa40e41461008b57806311a7a4c0146100b457806312065fe0146100f257806320d8ba681461011d57610086565b3661008657005b600080fd5b34801561009757600080fd5b506100b260048036038101906100ad91906103e9565b6101e6565b005b3480156100c057600080fd5b506100db60048036038101906100d69190610412565b6102ad565b6040516100e99291906104ca565b60405180910390f35b3480156100fe57600080fd5b506101076102d1565b60405161011491906104af565b60405180910390f35b61013760048036038101906101329190610464565b6102d9565b005b34801561014557600080fd5b50610160600480360381019061015b9190610412565b61030a565b60405161016d91906104af565b60405180910390f35b34801561018257600080fd5b5061019d60048036038101906101989190610412565b61032a565b6040516101aa91906104af565b60405180910390f35b3480156101bf57600080fd5b506101da60048036038101906101d59190610412565b61034a565b005b6101e46103a8565b005b8073ffffffffffffffffffffffffffffffffffffffff166108fc3073ffffffffffffffffffffffffffffffffffffffff166312065fe06040518163ffffffff1660e01b815260040160206040518083038186803b15801561024657600080fd5b505afa15801561025a573d6000803e3d6000fd5b505050506040513d601f19601f8201168201806040525081019061027e919061043b565b9081150290604051600060405180830381858888f193505050501580156102a9573d6000803e3d6000fd5b5050565b60026020528060005260406000206000915090508060000154908060010154905082565b600047905090565b806002600084815260200190815260200160002060010160008282546102ff91906104f3565b925050819055505050565b600060026000838152602001908152602001600020600001549050919050565b600060026000838152602001908152602001600020600101549050919050565b600260008281526020019081526020016000206000016000815480929190610371906105b9565b9190505550614e2060026000838152602001908152602001600020600101600082825461039e9190610549565b9250508190555050565b565b6000813590506103b981610631565b92915050565b6000813590506103ce81610648565b92915050565b6000815190506103e381610648565b92915050565b6000602082840312156103fb57600080fd5b6000610409848285016103aa565b91505092915050565b60006020828403121561042457600080fd5b6000610432848285016103bf565b91505092915050565b60006020828403121561044d57600080fd5b600061045b848285016103d4565b91505092915050565b6000806040838503121561047757600080fd5b6000610485858286016103bf565b9250506020610496858286016103bf565b9150509250929050565b6104a9816105af565b82525050565b60006020820190506104c460008301846104a0565b92915050565b60006040820190506104df60008301856104a0565b6104ec60208301846104a0565b9392505050565b60006104fe826105af565b9150610509836105af565b9250827fffffffffffffffffffffffffffffffffffffffffffffffffffffffffffffffff0382111561053e5761053d610602565b5b828201905092915050565b6000610554826105af565b915061055f836105af565b92508282101561057257610571610602565b5b828203905092915050565b60006105888261058f565b9050919050565b600073ffffffffffffffffffffffffffffffffffffffff82169050919050565b6000819050919050565b60006105c4826105af565b91507fffffffffffffffffffffffffffffffffffffffffffffffffffffffffffffffff8214156105f7576105f6610602565b5b600182019050919050565b7f4e487b7100000000000000000000000000000000000000000000000000000000600052601160045260246000fd5b61063a8161057d565b811461064557600080fd5b50565b610651816105af565b811461065c57600080fd5b5056fea264697066735822122007569594a0a3abc2352ec3a57991b37b769416b604ef1604ae1f58f15f14439b64736f6c63430008030033",
  "immutableReferences": {},
  "source": "// SPDX-License-Identifier: MIT\npragma solidity ^0.8.3;\n\ncontract AdvertContract {\n  string message;\n  address payable owner;\n\n  struct Ad {\n    uint counter;\n    uint funds;\n  }\n\n  mapping(uint => Ad) public ads;\n\n \n  constructor() {\n  owner = payable(msg.sender);\n  }\n\n  receive() external payable {\n     \n  }\n\n  function receiveEther() payable public {\n  }\n\n  function augmentAds(uint _id, uint _wei) payable public{\n    ads[_id].funds += _wei;\n  }\n\n  function getFunds(uint _id) public view returns(uint){\n    return ads[_id].funds;\n  }\n\n  function getCounter(uint _id) public view returns(uint){\n    return ads[_id].counter;\n  }\n\n\n  function showAd(uint _id) public {\n    ads[_id].counter++;\n    ads[_id].funds -= 20000;\n  }\n\n\n\n  function getBalance() public view returns(uint){\n    return address(this).balance;\n  }\n\n  function withdrawEtherTo(address payable _to) public {\n    _to.transfer(this.getBalance());\n}\n}",
  "sourcePath": "/home/daniel/Schreibtisch/BachelorThesis/SmartContract/contracts/AdvertContract.sol",
  "compiler": {
    "name": "solc",
    "version": "0.8.3+commit.8d00100c.Emscripten.clang"
  },
  "schemaVersion": "3.3.2",
  "updatedAt": "2021-05-04T21:10:05.591Z",
  "networkType": "ethereum",
  "devdoc": {
    "kind": "dev",
    "methods": {},
    "version": 1
  },
  "userdoc": {
    "kind": "user",
    "methods": {},
    "version": 1
  }
}