{
  "contractName": "AdvertContract",
  "abi": [
    {
      "inputs": [],
      "stateMutability": "nonpayable",
      "type": "constructor"
    },
    {
      "inputs": [
        {
          "internalType": "uint256",
          "name": "",
          "type": "uint256"
        }
      ],
      "name": "ads",
      "outputs": [
        {
          "internalType": "uint256",
          "name": "counter",
          "type": "uint256"
        },
        {
          "internalType": "uint256",
          "name": "funds",
          "type": "uint256"
        }
      ],
      "stateMutability": "view",
      "type": "function",
      "constant": true
    },
    {
      "stateMutability": "payable",
      "type": "receive",
      "payable": true
    },
    {
      "inputs": [],
      "name": "receiveEther",
      "outputs": [],
      "stateMutability": "payable",
      "type": "function",
      "payable": true
    },
    {
      "inputs": [
        {
          "internalType": "uint256",
          "name": "_id",
          "type": "uint256"
        },
        {
          "internalType": "uint256",
          "name": "_wei",
          "type": "uint256"
        }
      ],
      "name": "receiveNewAd",
      "outputs": [],
      "stateMutability": "payable",
      "type": "function",
      "payable": true
    },
    {
      "inputs": [
        {
          "internalType": "uint256",
          "name": "_id",
          "type": "uint256"
        }
      ],
      "name": "getFunds",
      "outputs": [
        {
          "internalType": "uint256",
          "name": "",
          "type": "uint256"
        }
      ],
      "stateMutability": "view",
      "type": "function",
      "constant": true
    },
    {
      "inputs": [],
      "name": "getBalance",
      "outputs": [
        {
          "internalType": "uint256",
          "name": "",
          "type": "uint256"
        }
      ],
      "stateMutability": "view",
      "type": "function",
      "constant": true
    },
    {
      "inputs": [
        {
          "internalType": "address payable",
          "name": "_to",
          "type": "address"
        }
      ],
      "name": "withdrawEtherTo",
      "outputs": [],
      "stateMutability": "nonpayable",
      "type": "function"
    }
  ],
  "bytecode": "0x608060405234801561001057600080fd5b5033600160006101000a81548173ffffffffffffffffffffffffffffffffffffffff021916908373ffffffffffffffffffffffffffffffffffffffff1602179055506040518060400160405280600c81526020017f48656c6c6f20576f726c642100000000000000000000000000000000000000008152506000908051906020019061009d9291906100a3565b506101a7565b8280546100af90610146565b90600052602060002090601f0160209004810192826100d15760008555610118565b82601f106100ea57805160ff1916838001178555610118565b82800160010185558215610118579182015b828111156101175782518255916020019190600101906100fc565b5b5090506101259190610129565b5090565b5b8082111561014257600081600090555060010161012a565b5090565b6000600282049050600182168061015e57607f821691505b6020821081141561017257610171610178565b5b50919050565b7f4e487b7100000000000000000000000000000000000000000000000000000000600052602260045260246000fd5b61050e806101b66000396000f3fe6080604052600436106100595760003560e01c806307fa40e41461006557806311a7a4c01461008e57806312065fe0146100cc57806326bac71a146100f75780633e72101514610113578063a3912ec81461015057610060565b3661006057005b600080fd5b34801561007157600080fd5b5061008c600480360381019061008791906102df565b61015a565b005b34801561009a57600080fd5b506100b560048036038101906100b09190610308565b610221565b6040516100c39291906103c0565b60405180910390f35b3480156100d857600080fd5b506100e1610245565b6040516100ee91906103a5565b60405180910390f35b610111600480360381019061010c919061035a565b61024d565b005b34801561011f57600080fd5b5061013a60048036038101906101359190610308565b61027e565b60405161014791906103a5565b60405180910390f35b61015861029e565b005b8073ffffffffffffffffffffffffffffffffffffffff166108fc3073ffffffffffffffffffffffffffffffffffffffff166312065fe06040518163ffffffff1660e01b815260040160206040518083038186803b1580156101ba57600080fd5b505afa1580156101ce573d6000803e3d6000fd5b505050506040513d601f19601f820116820180604052508101906101f29190610331565b9081150290604051600060405180830381858888f1935050505015801561021d573d6000803e3d6000fd5b5050565b60026020528060005260406000206000915090508060000154908060010154905082565b600047905090565b8060026000848152602001908152602001600020600101600082825461027391906103e9565b925050819055505050565b600060026000838152602001908152602001600020600101549050919050565b565b6000813590506102af816104aa565b92915050565b6000813590506102c4816104c1565b92915050565b6000815190506102d9816104c1565b92915050565b6000602082840312156102f157600080fd5b60006102ff848285016102a0565b91505092915050565b60006020828403121561031a57600080fd5b6000610328848285016102b5565b91505092915050565b60006020828403121561034357600080fd5b6000610351848285016102ca565b91505092915050565b6000806040838503121561036d57600080fd5b600061037b858286016102b5565b925050602061038c858286016102b5565b9150509250929050565b61039f81610471565b82525050565b60006020820190506103ba6000830184610396565b92915050565b60006040820190506103d56000830185610396565b6103e26020830184610396565b9392505050565b60006103f482610471565b91506103ff83610471565b9250827fffffffffffffffffffffffffffffffffffffffffffffffffffffffffffffffff038211156104345761043361047b565b5b828201905092915050565b600061044a82610451565b9050919050565b600073ffffffffffffffffffffffffffffffffffffffff82169050919050565b6000819050919050565b7f4e487b7100000000000000000000000000000000000000000000000000000000600052601160045260246000fd5b6104b38161043f565b81146104be57600080fd5b50565b6104ca81610471565b81146104d557600080fd5b5056fea264697066735822122053d1f41348391fb263daafa961faaa9d3e9dac947e149f2d10cd4df823f3fbc964736f6c63430008030033",
  "immutableReferences": {},
  "source": "// SPDX-License-Identifier: MIT\npragma solidity ^0.8.3;\n\ncontract AdvertContract {\n  string message;\n  address payable owner;\n\n  struct Ad {\n    uint counter;\n    uint funds;\n  }\n\n  mapping(uint => Ad) public ads;\n\n \n  constructor() {\n  owner = payable(msg.sender);\n  message = \"Hello World!\";\n  }\n\n  receive() external payable {\n     \n  }\n\n  function receiveEther() payable public {\n\n  }\n\n  function receiveNewAd(uint _id, uint _wei) payable public{\n    ads[_id].funds += _wei;\n  }\n\n  function getFunds(uint _id) public view returns(uint){\n    return ads[_id].funds;\n  }\n\n  function return1() private returns(uint){\n    \n  }\n  function return2() private returns(uint){\n\n  }\n\n  function getBalance() public view returns(uint){\n    return address(this).balance;\n  }\n\n  function withdrawEtherTo(address payable _to) public {\n    _to.transfer(this.getBalance());\n}\n}",
  "sourcePath": "/home/daniel/Schreibtisch/BachelorThesis/SmartContract/contracts/AdvertContract.sol",
  "compiler": {
    "name": "solc",
    "version": "0.8.3+commit.8d00100c.Emscripten.clang"
  },
  "schemaVersion": "3.3.2",
  "updatedAt": "2021-05-04T01:20:16.231Z",
  "networkType": "ethereum",
  "devdoc": {
    "kind": "dev",
    "methods": {},
    "version": 1
  },
  "userdoc": {
    "kind": "user",
    "methods": {},
    "version": 1
  }
}